:100000000C94F3000C9410010C9410010C9410014A
:100010000C9410010C9410010C9410010C9410011C
:100020000C9410010C94C90E0C9410010C94100146
:100030000C9410010C9410010C9410010C941001FC
:100040000C9410010C9410010C9410010C941001EC
:100050000C94100120202020C2FBE1E5F0E8F2E53D
:10006000202020200000202020D2E5F1F220EFE027
:10007000ECFFF2E82020000020CEF8E8E1EAE020E2
:10008000EFE0ECFFF2E820210000CFE0ECFFF2FC13
:1000900020E8F1EFF0E0E2EDE0200000CDE5F22015
:1000A000F4E0E9EBEEE22074617020210000C04131
:1000B000C1A0C242C3A1C4E0C545A8A2C6A3C7A4AB
:1000C000C8A5C9A6CA4BCBA7CC4DCD48CE4FCFA80B
:1000D000D050D143D254D3A9D4AAD558D6E1D7AB66
:1000E000D8ACD9E2DAADDBAEDC62DDAFDEB0DFB1D9
:1000F000E061E1B2E2B3E3B4E4E3E565B8B5E6B6E6
:10010000E7B7E8B8E9B9EABAEBBBECBCEDBDEE6F16
:10011000EFBEF070F163F2BFF379F4E4F578F6E541
:10012000F7C0F8C1F9E6FAC2FBC3FCC4FDC5FEC6C0
:10013000FFC7CAE0F0F2E020EFE0ECFFF2E820EDCC
:10014000E5200000EFEEE4E4E5F0E6E8E2E0E5F2C9
:10015000205350490000CAE0F0F2E020ECEEEBF74B
:10016000E8F2212020200000CEE1FAE5EC20534403
:100170002DEAE0F0F2FB20200000EDE520EEEFF0AC
:10018000E5E4E5EBE5ED212020200000CEE1FAE5F5
:10019000EC2053442DEAE0F0F2FB20200000D2E8EE
:1001A000EF20F42E20F1E8F1F2E5ECFB2020000036
:1001B00046415433322D20EEF8E8E1EAE0212020D8
:1001C000000046415431362D20EEEA2E202020201A
:1001D0002020000046415431322D20EEF8E8E1EABB
:1001E000E0212020000011241FBECFE5D4E0DEBFB7
:1001F000CDBF11E0A0E6B0E0E8E1F6E302C0059073
:100200000D92A631B107D9F713E0A6E1B1E001C024
:100210001D92A538B107E1F70E9490160C940A1BB5
:100220000C9400008D9A8F9A8E9AA09A8FEF8ABBB9
:10023000A19A87B3807F87BB959A979A969AA89A36
:1002400008959798000000009598000000000000B5
:100250000000979A00000000959A08950F931F934D
:1002600027B3207F27BBA89A6BBBA99855B38C01F5
:10027000222733270170000F052B05BB9598672FA8
:10028000782F892F99276BBBA998442309F4A99A41
:10029000979800000000A8980000000086B3A89A74
:1002A000979A979A959A8F701F910F910895EF9250
:1002B000FF920F931F93A89A37B33F6037BB6BBB76
:1002C000A99835B37C010027112751E0E522EE0CF7
:1002D000E32AE5BA9598000096980000672F782FDA
:1002E000892F99276BBBA998222309F4A99A88B36F
:1002F000807F88BB88B34F70842B88BB97980000A1
:100300000000969A979A959A1F910F91FF90EF90FF
:100310000895DF92EF92FF920F931F937B018C0160
:1003200040E00E942E01D82ED294F0EFDF22C801C7
:10033000B70141E00E942E018D291F910F91FF907E
:10034000EF90DF900895DF92EF92FF920F931F934B
:100350007B018C01D42E42954F7020E00E94570102
:100360008FE0D822C801B7014D2D21E00E9457012E
:100370001F910F91FF90EF90DF900895AD98AC988A
:10038000AB98AA98AE9A45B3282F26952695269520
:1003900030E02170307055E0220F331F5A95E1F79D
:1003A000422B45BB45B3282F2695269530E021707A
:1003B000307094E0220F331F9A95E1F7422B45BB32
:1003C00045B3282F269530E021703070B3E0220F1E
:1003D000331FBA95E1F7422B45BB25B390E08170FE
:1003E0009070880F991F880F991F282B25BB80E9D3
:1003F00091E0FC013197F1F7AE980197F1F708957C
:100400001F93182FAF9A82958F700E94BE01812F83
:100410008F700E94BE011F9108951F93182FAF98EF
:1004200082958F700E94BE01812F8F700E94BE0145
:100430001F9108950F931F93A79AA69AA59AA49A1D
:10044000A39AA29A88EC90E020E931E0F901319773
:10045000F1F70197D9F7AF9883E00E94BE0180E2DF
:100460009EE40197F1F783E00E94BE0180E293E0F1
:100470000197F1F783E00E94BE0182E00E94BE0175
:100480008CE20E940D0200EA1FE0C8010197F1F71B
:1004900088E00E940D02C8010197F1F781E00E94F7
:1004A0000D02C8010197F1F786E00E940D028CE071
:1004B0000E940D02C8010197F1F71F910F91089555
:1004C000AF92BF92CF92DF92FF920F931F93DF9371
:1004D000CF93CDB7DEB760970FB6F894DEBF0FBEEF
:1004E000CDBF182F092F80E80E940D0280E991E00E
:1004F0000197F1F7212F302FC9016C01DE01119610
:100500009C01BE016F5E7F4FF90140814C9380E0FA
:1005100090E0FC01E255FF4FE491E41731F481557E
:100520009F4FFC0184918C9304C0029684389105FE
:1005300081F72F5F3F4F1196A617B70729F700E005
:1005400010E05E010894A11CB11CF02EF601808120
:100550008823A1F0F501E00FF11F80810E940002C5
:10056000F3940F5F1F4F0894C11CD11C003111057B
:1005700061F704C080E20E940002F394FFE0FF15DF
:10058000C8F760960FB6F894DEBF0FBECDBFCF910F
:10059000DF911F910F91FF90DF90CF90BF90AF90B0
:1005A0000895AF92BF92CF92DF92FF920F931F9365
:1005B000DF93CF93CDB7DEB760970FB6F894DEBF69
:1005C0000FBECDBF182F092F88EA0E940D0280E9C7
:1005D00091E00197F1F7212F302FC9016C01DE0165
:1005E00011969C01BE016F5E7F4FF90140814C93D3
:1005F00080E090E0FC01E255FF4FE491E41731F414
:1006000081559F4FFC0184918C9304C002968438DD
:10061000910581F72F5F3F4F1196A617B70729F76E
:1006200000E010E05E010894A11CB11CF02EF60160
:1006300080818823A1F0F501E00FF11F80810E94E5
:100640000002F3940F5F1F4F0894C11CD11C0031AE
:10065000110561F704C080E20E940002F394FFE0FC
:10066000FF15C8F760960FB6F894DEBF0FBECDBF7A
:10067000CF91DF911F910F91FF90DF90CF90BF90AE
:10068000AF900895AF92BF92CF92DF92FF920F93F7
:100690001F93DF93CF93CDB7DEB760970FB6F89473
:1006A000DEBF0FBECDBF5C0180E80E940D0280E975
:1006B00091E00197F1F79501DE011196BE016F5EA1
:1006C0007F4FF90144914C9380E090E0FC01E255AA
:1006D000FF4FE491E41731F481559F4FFC01849161
:1006E0008C9304C002968438910581F72F5F3F4FA9
:1006F0001196A617B70729F700E010E06E010894DD
:10070000C11CD11CF02EF501E00FF11FE491EE2386
:1007100089F0F601E00FF11F80810E940002F3943E
:100720000F5F1F4F0031110569F704C080E20E947E
:100730000002F394FFE0FF15C8F760960FB6F89437
:10074000DEBF0FBECDBFCF91DF911F910F91FF9004
:10075000DF90CF90BF90AF900895AF92BF92CF92AD
:10076000DF92FF920F931F93DF93CF93CDB7DEB746
:1007700060970FB6F894DEBF0FBECDBF5C0188EA6C
:100780000E940D0280E991E00197F1F79501DE01E9
:100790001196BE016F5E7F4FF90144914C9380E04A
:1007A00090E0FC01E255FF4FE491E41731F48155EC
:1007B0009F4FFC0184918C9304C00296843891056C
:1007C00081F72F5F3F4F1196A617B70729F700E073
:1007D00010E06E010894C11CD11CF02EF501E00F51
:1007E000F11FE491EE2389F0F601E00FF11F808103
:1007F0000E940002F3940F5F1F4F0031110569F74B
:1008000004C080E20E940002F394FFE0FF15C8F7E5
:1008100060960FB6F894DEBF0FBECDBFCF91DF91CB
:100820001F910F91FF90DF90CF90BF90AF900895F0
:100830008FB9779BFECF8FB108950F93DF93CF933E
:1008400000D000D00F92CDB7DEB789836A834B8387
:100850002C830D83FE0131969E012A5F3F4F8081DC
:100860008FB9779BFECF8FB13196E217F307B9F7B7
:1008700085E98FB9779BFECF8FB120E030E04FEF55
:1008800095E34FB9779BFECF8FB187FF0AC0892FC1
:100890008A95F1F72F5F3F4F8FEF2F3F380789F78A
:1008A0008FEF0F900F900F900F900F90CF91DF91DF
:1008B0000F9108950F931F93CF93DF93EC016F5F18
:1008C000641BA0E0B0E030E00FE010E01EC0232F7A
:1008D000240F822F869586958695F801E81BF109ED
:1008E000EC0FFD1F808190E0277002C095958795E1
:1008F0002A95E2F781709070032E02C0880F991F2D
:100900000A94E2F7A82BB92B3F5F361700F3CD010D
:10091000DF91CF911F910F910895CF92DF92EF92C7
:10092000FF920F931F93DF93CF93CDB7DEB76097FE
:100930000FB6F894DEBF0FBECDBF89E460E040E0A3
:1009400020E000E00E941D048F3F09F459C020E020
:1009500030E04FEF95E34FB9779BFECF8FB18E3FDD
:1009600051F0892F8A95F1F72F5F3F4F8FEF2F3F7F
:10097000380789F745C0FE0131969FEF9E012F5E33
:100980003F4F9FB9779BFECF8FB18193E217F3075B
:10099000C1F780E090E02FEF2FB9779BFECF3FB1FA
:1009A00001968F3F9105C1F78E010F5F1F4FC80160
:1009B00069E44EE30E945A046C01C80161E34FE20E
:1009C0000E945A04EE24FF240894C11CD11CE11C8F
:1009D000F11C029604C0CC0CDD1CEE1CFF1C8A9599
:1009E000D2F7C80163E540E50E945A04A7019601C9
:1009F00004C0220F331F441F551F8A95D2F704C02D
:100A00002FEF3FEF40E050E0B901CA0160960FB60A
:100A1000F894DEBF0FBECDBFCF91DF911F910F9134
:100A2000FF90EF90DF90CF9008956F927F928F921A
:100A30009F92AF92BF92CF92DF92EF92FF920F936D
:100A40001F937B018C01292F3327442755275801F9
:100A5000CC24DD246F2C702E812E992481E5622F09
:100A60004A2D262D0E2D0E941D048823F9F48FEFA8
:100A70008FB9779BFECF8FB120E030E04FEF95E349
:100A80004FB9779BFECF8FB18E3F51F0892F8A955A
:100A9000F1F72F5F3F4F8FEF2F3F380789F706C0E1
:100AA000109211011092100181E001C080E01F91AD
:100AB0000F91FF90EF90DF90CF90BF90AF909F90FD
:100AC0008F907F906F900895FC018091100190911C
:100AD00011018050924010F080E008958FEF8FB99F
:100AE000779BFECF8FB1808380911001909111018F
:100AF000019690931101809310018050924011F063
:100B000081E008958FEF8FB9779BFECF8FB18FEF84
:100B10008FB9779BFECF8FB181E008956F927F925E
:100B20008F929F92AF92BF92CF92DF92EF92FF92FD
:100B30000F931F93CF93DF937B018C01EA01292F41
:100B40003327442755275C01CC24DD24672E782EDB
:100B5000892E992481E5622F4A2D262D0E2D0E9483
:100B60001D048823A9F58FEF8FB9779BFECF8FB136
:100B700020E030E04FEF95E34FB9779BFECF8FB188
:100B80008E3F51F0892F8A95F1F72F5F3F4F8FEFFE
:100B90002F3F380789F71CC020E030E09FEF9FB956
:100BA000779BFECF8FB188832F5F3F4F82E020304D
:100BB000380711F02196F3CF8FEF8FB9779BFECFD7
:100BC0008FB18FEF8FB9779BFECF8FB181E001C0DE
:100BD00080E0DF91CF911F910F91FF90EF90DF9018
:100BE000CF90BF90AF909F908F907F906F9008951F
:100BF000EF92FF920F931F937B018C0180911E0156
:100C000090911F01A0912001B0912101E80EF91EE1
:100C10000A1F1B1FA801970109E0569547953795B4
:100C200027950A95D1F78091120190911301A09117
:100C30001401B0911501281739074A075B07A9F07D
:100C40002093120130931301409314015093150126
:100C500019E0220F331F441F551F1A95D1F7CA01FF
:100C6000B90148E251E00E948E05F701F170E85D9C
:100C7000FE4F608170E080E090E01F910F91FF9047
:100C8000EF900895AF92BF92CF92DF92EF92FF92D2
:100C90000F931F935B016C016F5F7F4F8F4F9F4FCF
:100CA0000E94F8057B018C01102F0F2DFE2CEE24E5
:100CB000C601B5010E94F8059B01AC012E293F2910
:100CC000402B512BB901CA011F910F91FF90EF905A
:100CD000DF90CF90BF90AF9008952F923F924F92A8
:100CE0005F926F927F928F929F92AF92BF92CF92BC
:100CF000DF92EF92FF920F931F93CF93DF93EC015C
:100D00008C819D81AE81BF818097A109B1098C83BF
:100D10009D83AE83BF83288939894A895B8982177D
:100D20009307A407B50708F0B4C0288139814A8128
:100D30005B818091810390918203A0918303B091A4
:100D40008403281739074A075B0709F4A4C02884DD
:100D500039844A845B8480912201813021F0EE2421
:100D6000FF24870106C082017101EE0CFF1C001FE9
:100D7000111F60916D0370916E0380916F039091CC
:100D8000700320914D0330914E0340914F035091D9
:100D900050030E94EA17E60EF71E081F191FC8012C
:100DA000B7010E9442067B018C01DC01CB01039755
:100DB000A109B109855F9F4FA040B04008F06BC00A
:100DC0008C859D85AE85BF85E816F9060A071B0749
:100DD00029F0C701D8011C012D01BDCFD201C101ED
:100DE0000397A109B109855F9F4FA040B04008F06B
:100DF00052C02C863D864E865F866090450370907B
:100E000046038090470390904803A0906D03B090F4
:100E10006E03C0906F03D09070038EEF9FEFAFEF23
:100E2000BFEF280E391E4A1E5B1EC201B101A4018C
:100E300093010E94EA179B01AC01609141037091FC
:100E400042038091430390914403620F731F841FF8
:100E5000951FA60195010E94EA177B018C01688B02
:100E6000798B8A8B9B8BC601B501A40193010E94EB
:100E7000EA176E0D7F1D801F911F6C8B7D8B8E8BF3
:100E80009F8B60527040804090406C837D838E8346
:100E90009F8381E001C080E0DF91CF911F910F918E
:100EA000FF90EF90DF90CF90BF90AF909F908F908A
:100EB0007F906F905F904F903F902F900895AF92EA
:100EC000BF92CF92DF92EF92FF920F931F93DF9327
:100ED000CF93CDB7DEB768970FB6F894DEBF0FBEDD
:100EE000CDBFDE011196E5E5F3E088E101900D92BA
:100EF0008150E1F75E010894A11CB11CC5010E945C
:100F00006D06882309F46EC0CC24DD2476016D8142
:100F10007E818F8198856C0D7D1D8E1D9F1D0E9489
:100F2000F8058C2DCC2021F4603241F3653E31F37D
:100F3000603220F38130A9F46D817E818F819885A4
:100F40000E94F805162F6D817E818F8198856F5FD5
:100F50007F4F8F4F9F4F0E94F8051E3211F46E3263
:100F600069F60894C11CD11CE11CF11C8BE0C81669
:100F7000D104E104F10459F646C064FD29C06D8135
:100F80007E818F819885665F7F4F8F4F9F4F0E9434
:100F9000F805162F6D817E818F819885675F7F4F61
:100FA0008F4F9F4F0E94F805062F6D817E818F81A4
:100FB0009885685F7F4F8F4F9F4F0E94F8051035CF
:100FC00009F09CCF013409F099CF643509F096CF30
:100FD000A5E5B3E0FE01319688E101900D928150C4
:100FE000E1F781E068960FB6F894DEBF0FBECDBF83
:100FF000CF91DF911F910F91FF90EF90DF90CF90F5
:10100000BF90AF9008956D817E818F819885655FD7
:101010007F4F8F4F9F4F0E94F80563FD6FCFADCF7D
:101020006F927F928F929F92AF92BF92CF92DF92F8
:10103000EF92FF920F931F93CF93DF93EC018C817C
:101040009D81AE81BF818096A11DB11D8C839D8342
:10105000AE83BF832C893D894E895F8982179307B0
:10106000A407B50708F4A9C0288139814A815B81AA
:101070008091810390918203A0918303B0918403B6
:10108000281739074A075B0709F499C0E091220144
:10109000E13021F0EE24FF24870108C0EC84FD84B8
:1010A0000E851F85EE0CFF1C001F111F20914D03A4
:1010B00030914E0340914F035091500360916D0366
:1010C00070916E0380916F0390917003E13009F08D
:1010D00076C00E94EA17E60EF71E081F191FC80106
:1010E000B7010E9442069B01AC01611571058105A3
:1010F000910509F464C08091750390917603A091E5
:101100007703B09178030296A11DB11D2817390706
:101110004A075B0708F053C0283F8FEF380780E08D
:10112000480780E0580708F04AC02C873D874E8763
:101130005F876090450370904603809047039090CE
:101140004803A0906D03B0906E03C0906F03D090E1
:1011500070032250304040405040CA01B901A40100
:1011600093010E94EA179B01AC01609141037091C9
:1011700042038091430390914403620F731F841FC5
:10118000951FA60195010E94EA177B018C016C83D3
:101190007D838E839F83688B798B8A8B9B8BC60123
:1011A000B501A40193010E94EA176E0D7F1D801FF7
:1011B000911F6C8B7D8B8E8B9F8B81E001C080E0BB
:1011C000DF91CF911F910F91FF90EF90DF90CF9023
:1011D000BF90AF909F908F907F906F900895AF9247
:1011E000BF92CF92DF92EF92FF920F931F93DF9304
:1011F000CF93CDB7DEB768970FB6F894DEBF0FBEBA
:10120000CDBFDE011196E5E5F3E088E101900D9296
:101210008150E1F75E010894A11CB11CC5010E9438
:101220001008882309F46EC0CC24DD2476016D817A
:101230007E818F8198856C0D7D1D8E1D9F1D0E9466
:10124000F8058C2DCC2021F4603241F3653E31F35A
:10125000603220F38130A9F46D817E818F81988581
:101260000E94F805162F6D817E818F8198856F5FB2
:101270007F4F8F4F9F4F0E94F8051E3211F46E3240
:1012800069F60894C11CD11CE11CF11C8BE0C81646
:10129000D104E104F10459F646C064FD29C06D8112
:1012A0007E818F819885665F7F4F8F4F9F4F0E9411
:1012B000F805162F6D817E818F819885675F7F4F3E
:1012C0008F4F9F4F0E94F805062F6D817E818F8181
:1012D0009885685F7F4F8F4F9F4F0E94F8051035AC
:1012E00009F09CCF013409F099CF643509F096CF0D
:1012F000A5E5B3E0FE01319688E101900D928150A1
:10130000E1F781E068960FB6F894DEBF0FBECDBF5F
:10131000CF91DF911F910F91FF90EF90DF90CF90D1
:10132000BF90AF9008956D817E818F819885655FB4
:101330007F4F8F4F9F4F0E94F80563FD6FCFADCF5A
:10134000AF92BF92CF92DF92EF92FF920F931F93D3
:101350005B016C016D5F7F4F8F4F9F4F0E94F805BF
:10136000EE24F62E072F182FC601B5016E5F7F4FB2
:101370008F4F9F4F0E94F805E62AF72A082B192B5A
:10138000102F0F2DFE2CEE24C601B5016F5F7F4F8D
:101390008F4F9F4F0E94F805E62AF72A082B192B3A
:1013A000102F0F2DFE2CEE24C601B5010E94F8056A
:1013B0009B01AC012E293F29402B512BB901CA01B9
:1013C0001F910F91FF90EF90DF90CF90BF90AF9063
:1013D00008952F923F924F925F926F927F928F92D9
:1013E0009F92AF92BF92CF92DF92EF92FF920F93B4
:1013F0001F93DF93CF93CDB7DEB768970FB6F894FE
:10140000DEBF0FBECDBF4C012B011A013901D9013E
:101410001C92009729F45401CC24DD2476010CC0E1
:1014200080E090E020E2F401E80FF91F20830196AC
:101430008B309105C1F7EFCF6091590370915A033A
:1014400080915B0390915C036C0D7D1D8E1D9F1D33
:101450000E94F8058C2DCC2031F4603209F499C13A
:10146000653E09F496C1603208F493C18114910479
:1014700049F0883018F4F501608304C0D501119655
:101480006C9320C08130F1F46091590370915A033C
:1014900080915B0390915C030E94F805162F609188
:1014A000590370915A0380915B0390915C036F5FC5
:1014B0007F4F8F4F9F4F0E94F8051E3219F46E32F6
:1014C00009F067C10894C11CD11CE11CF11C0894EF
:1014D000A11CB11CBBE0CB16D104E104F10409F05E
:1014E000ABCF73C16091590370915A0380915B0334
:1014F00090915C03F0E1CF2ED12CC222D32224FDA7
:101500002EC0665F7F4F8F4F9F4F0E94F805162FAA
:101510006091590370915A0380915B0390915C0331
:10152000675F7F4F8F4F9F4F0E94F805062F609196
:10153000590370915A0380915B0390915C03685F3B
:101540007F4F8F4F9F4F0E94F805103509F021C142
:10155000013409F01EC1643509F01BC11CC00E9492
:10156000F805162F6091590370915A0380915B031F
:1015700090915C036F5F7F4F8F4F9F4F0E94F805E4
:101580001E3231F46E3221F48FEFF301808303C0F9
:1015900081E0D3018C936091590370915A0380913B
:1015A0005B0390915C036C5E7F4F8F4F9F4F0E9457
:1015B00042067B018C016091590370915A0380911E
:1015C0005B0390915C03665E7F4F8F4F9F4F0E943D
:1015D00042068701FF24EE24E62AF72A082B192B5E
:1015E000F201E082F18202831383609159037091CA
:1015F0005A0380915B0390915C03645E7F4F8F4F31
:101600009F4F0E94A009D1016D937D938D939C9370
:1016100013978114910409F4BEC0CD2819F48EE209
:10162000F4018087D4011C961C92DE011196E5E539
:10163000F3E088E101900D928150E1F7DD245E0135
:101640000894A11CB11CC5010E946D06882309F4F1
:1016500096C06D817E818F819885655F7F4F8F4FAA
:101660009F4F0E94F80570E06F707070672B09F44F
:1016700086C06D817E818F8198850E94F805C62E77
:10168000EE24FF24870125C06D817E818F8198859E
:101690006F5F7F4F8F4F9F4F6E0D7F1D801F911F7C
:1016A0000E94F805F401ED0DF11D6083D39482E0F2
:1016B00090E0A0E0B0E0E80EF91E0A1F1B1F9AE0C0
:1016C000E916F1040105110521F4EE24FF24870138
:1016D0003CC0A0E1AD15C0F6F8CF6D817E818F8151
:1016E0009885625F7F4F8F4F9F4F6E0D7F1D801FCC
:1016F000911F0E94F805F401ED0DF11D6083D39454
:1017000082E090E0A0E0B0E0E80EF91E0A1F1B1F87
:101710009CE0E916F10401051105B9F4A0E1AD154D
:1017200008F466C06D817E818F819885645E7F4FED
:101730008F4F9F4F0E94F805F401ED0DF11D60835E
:101740001D2D1F5F113129F453C0B0E1BD1528F6DE
:101750004FC06D817E818F819885625E7F4F8F4FF4
:101760009F4F0E94F805F401E10FF11D6083D12E17
:10177000D394E1E1DE16E1F1C6FE65CF05C0F0E1EC
:10178000FD15B0F1DD2039F08D0C911CD4011C92B7
:1017900002C080E001C081E068960FB6F894DEBF19
:1017A0000FBECDBFCF91DF911F910F91FF90EF90B2
:1017B000DF90CF90BF90AF909F908F907F906F9071
:1017C0005F904F903F902F900895609159037091D2
:1017D0005A0380915B0390915C03655F7F4F8F4F4D
:1017E0009F4F0E94F805262F30E063FF7BCED1CFBC
:1017F00060E1D62EC9CF2F923F924F925F926F92A7
:101800007F928F929F92AF92BF92CF92DF92EF9290
:10181000FF920F931F93DF93CF93CDB7DEB76697F9
:101820000FB6F894DEBF0FBECDBF9A8B898B7C8B31
:101830006B8BFC011182108288E293E0BE016E5F27
:101840007F4FAE014A5F5F4F9E012F5F3F4F0E9467
:10185000E909882309F40BC1662477244301222473
:101860003324188A1F86442455241E86F6C00E94FD
:101870002101A0907D03B0907E03C0907F03D090A3
:1018800080032E813F8148855985D401C3018A0D8B
:101890009B1DAC1DBD1D82179307A407B50730F033
:1018A00059016A01A618B708C808D9086A817B815E
:1018B0008C819D8162507040804090402091450312
:1018C0003091460340914703509148030E94EA1724
:1018D0009B01AC01609141037091420380914303ED
:1018E00090914403620F731F841F951F20916D0315
:1018F00030916E0340916F03509170030E94EA177C
:101900006A877B878C879D87EE24FF24870158C0D8
:101910000E9421016A857B858C859D856E0D7F1DCA
:10192000801F911F0E94F805462FFE85FF2329F492
:10193000462E552421E02E8739C03E85313059F49A
:101940006E8B1D8A8D899E89482A592A2224332428
:1019500092E09E872BC0EE85E23041F52F853889D5
:101960008B899C892817390729F4B10180E090E020
:101970000E94A3010894211C311C24143504B0F0EA
:10198000EF85F8892B893C89E217F30731F4E9895F
:10199000FA895182408281E06BC02F8538892F5FA0
:1019A0003F4F388B2F87442455241E860894E11C12
:1019B000F11C011D111D0894611C711C811C911CDE
:1019C000EA14FB040C051D0508F4A2CFE0912201E6
:1019D000E13021F0EE24FF24870108C0EA80FB807B
:1019E0000C811D81EE0CFF1C001F111F20914D0367
:1019F00030914E0340914F035091500360916D031D
:101A000070916E0380916F0390917003E13079F5CE
:101A10000E94EA17E60EF71E081F191FC801B7013A
:101A20000E9442069B01AC0161157105810591057B
:101A3000F1F08091750390917603A0917703B091B6
:101A400078030296A11DB11D281739074A075B07C5
:101A500070F42A833B834C835D838E819F81A885AC
:101A6000B985681679068A069B0608F400CF80E0DF
:101A700066960FB6F894DEBF0FBECDBFCF91DF9153
:101A80001F910F91FF90EF90DF90CF90BF90AF909C
:101A90009F908F907F906F905F904F903F902F908E
:101AA0000895AF92BF92CF92DF92EF92FF920F9381
:101AB0001F93DF93CF93CDB7DEB729970FB6F89476
:101AC000DEBF0FBECDBFE0905503F09056030091EE
:101AD000570310915803E0925903F0925A03009370
:101AE0005B0310935C0380915D0390915E03A09172
:101AF0005F03B09160038093610390936203A093AE
:101B00006303B0936403E0926503F092660300936D
:101B10006703109368038091810390918203A091E1
:101B20008303B0918403A0906D03B0906E03C090C6
:101B30006F03D0907003E816F9060A071B0749F0F7
:101B4000209145033091460340914703509148034B
:101B500008C02091790330917A0340917B03509122
:101B60007C03C601B5010E94EA17E60EF71E081FA6
:101B7000191FE0926903F0926A0300936B031093BC
:101B80006C0312E0C12ED12CCC0EDD1EB6E0EB2E84
:101B9000F12CEC0EFD1E8E010F5F1F4F80E090E0D8
:101BA000B601A70198010E94E909882311F081E09C
:101BB00004C00E94EF08882389F729960FB6F8948D
:101BC000DEBF0FBECDBFCF91DF911F910F91FF9070
:101BD000EF90DF90CF90BF90AF9008952F923F92FB
:101BE0004F925F926F927F928F929F92AF92BF922D
:101BF000CF92DF92EF92FF920F931F931B012C0164
:101C000060906D0370906E0380906F0390907003EE
:101C10006115710581059105D9F4E0908103F0907B
:101C200082030091830310918403E0925503F092A4
:101C30005603009357031093580320917903309172
:101C40007A0340917B0350917C03C401B30130C0FF
:101C5000A0904503B0904603C0904703D09048033E
:101C60006250704080409040A60195010E94EA17A2
:101C70009B01AC0160914103709142038091430349
:101C800090914403620F731F841F951FA401930159
:101C90000E94EA177B018C016093550370935603F1
:101CA0008093570390935803C401B301A601950193
:101CB0000E94EA17E60EF71E081F191FE09269033B
:101CC000F0926A0300936B0310936C0320925D0300
:101CD00030925E0340925F03509260032092610352
:101CE00030926203409263035092640380915503E3
:101CF00090915603A0915703B091580380935903D4
:101D000090935A03A0935B03B0935C0380936503A5
:101D100090936603A0936703B09368030E94510DEC
:101D20001F910F91FF90EF90DF90CF90BF90AF90F9
:101D30009F908F907F906F905F904F903F902F90EB
:101D4000089580ED97E020E931E0F9013197F1F74E
:101D50000197D9F7839906C0819904C0829902C07E
:101D6000849BF8CF0895F8941ABA17BA11BA14BA26
:101D70008B9889988A988C98889A8FEF8BBB88BBB0
:101D800082BB85BB83E083BF12BE81E089BF909890
:101D900008951F920F920FB60F9211242F933F9325
:101DA0004F935F936F937F938F939F93AF93BF9363
:101DB000CF93DF93EF93FF9312BE80911C01843089
:101DC00011F49098AAC080911D01813021F4909A5D
:101DD00010921D0104C0909881E080931D018091B4
:101DE0001C018823F1F4809127012EE830E002C025
:101DF000359527958A95E2F7209522BF80911A01A3
:101E000090911B011816190654F480911A019091B3
:101E10001B01019790931B0180931A0102C081E07E
:101E200010C080911C01813079F4809127012BE250
:101E300030E002C0359527958A95E2F7209522BFBC
:101E400082E080931C0169C080911C018230C1F442
:101E50002091270180E390E002C0959587952A950F
:101E6000E2F7809582BF83E080931C0180E180933C
:101E700025011092260110922401109223014DC0D9
:101E800080911C01833009F048C080912501803188
:101E900030F1C0912301D0912401809116019091DD
:101EA0001701C817D90740F084E080931C011092F5
:101EB00019011092180131C010922501BE0180E075
:101EC00090E00E94890180932601CE0101969093B3
:101ED000240180932301909319018093180130917C
:101EE000260137FF05C02091270180E790E004C05C
:101EF0002091270188E390E002C0959587952A9567
:101F0000E2F7809582BF8091250180FF03C0330FE7
:101F1000309326018F5F80932501FF91EF91DF9130
:101F2000CF91BF91AF919F918F917F916F915F9171
:101F30004F913F912F910F900FBE0F901F901895CA
:101F40002F923F924F925F926F927F928F929F92C9
:101F5000AF92BF92CF92DF92EF92FF920F931F93B7
:101F6000CF93DF9388E893E120E931E0F9013197DD
:101F7000F1F70197D9F700E010E058E2A52E53E001
:101F8000B52E40E6842E40E0942E30E7232E37E134
:101F9000332E20E9E22E21E0F22E9DE6492E90E03C
:101FA000592E80E4682E8CE9782E86E191E0B80104
:101FB0000E94FB0B882309F421C168010894C11C0D
:101FC000D11C2DB73EB7285030400FB6F8943EBF15
:101FD0000FBE2DBFEDB7FEB73196ADB7BEB71296A7
:101FE000BC92AE92119793828282D582C4828091F4
:101FF000160190911701978386830E9432182DB79E
:102000003EB7285F3F4F0FB6F8943EBF0FBE2DBFBF
:10201000C5010E94600212BE80912701D10102C059
:10202000AA0FBB1F8A95E2F7B0931B01A0931A0178
:1020300010921C0110921D011092190110921801AA
:102040007894C0E0D0E0F8940E94210180911C01B6
:10205000843009F062C000D000D000D0EDB7FEB7E8
:102060003196ADB7BEB71296BC92AE92119753821D
:102070004282D582C4820E9432182DB73EB72A5FB1
:102080003F4F0FB6F8943EBF0FBE2DBFC5010E9453
:1020900060028091160190911701449718F044EF67
:1020A00051E002C048EC50E020E030E031C0C30114
:1020B0000197F1F78499A2C0829B10C080ED97E050
:1020C000F7013197F1F70197D9F7829BFECF80EDA9
:1020D00097E0F7013197F1F70197D9F7839B08C093
:1020E00080ED97E0F7013197F1F70197D9F783C0B9
:1020F000819B0CC080ED97E0F7013197F1F70197D4
:10210000D9F70115110509F476C072C02F5F3F4F52
:102110002417350708F4CBCF6EC0209116013091FB
:102120001701409118015091190180911C01789478
:10213000833069F585E7C033D80741F5ADB7BEB741
:1021400018970FB6F894BEBF0FBEADBFEDB7FEB780
:1021500031961296BC92AE92119793828282D5826A
:10216000C482241B350B378326830E9432182DB777
:102170003EB7285F3F4F0FB6F8943EBF0FBE2DBF4E
:10218000C5010E946002C0E0D0E001C0219685E355
:102190008A95F1F7849B02C0F89430C0829B12C0EC
:1021A000F89480ED97E0F7013197F1F70197D9F7AF
:1021B000829BFECF789480ED97E0F7013197F1F79D
:1021C0000197D9F7839B08C080ED97E0F70131971D
:1021D000F1F70197D9F70FC0819B35CF80ED97E0DC
:1021E000F7013197F1F70197D9F70115110521F0A2
:1021F0000150104001C08601F894D7CE9098DF912D
:10220000CF911F910F91FF90EF90DF90CF90BF90F3
:10221000AF909F908F907F906F905F904F903F9086
:102220002F9008952F923F924F925F926F927F92DC
:102230008F929F92AF92BF92CF92DF92EF92FF92D6
:102240000F931F93CF93DF9386E690E00E944203A3
:102250001FEF8824992454017724C8E2D3E069E76A
:10226000262E60E0362EC501B4012FEF30E040E0AD
:1022700050E00E940918622E2117E9F000D000D02A
:1022800000D0EDB7FEB73196ADB7BEB71296DC936E
:10229000CE93119733822282248315820E943218B2
:1022A0008DB79EB706960FB6F8949EBF0FBE8DBF32
:1022B000CE010E94D102EE24FF248701472D4E0D4E
:1022C000C801B7010E94A3010E9421010894E11CEA
:1022D000F11C011D111D90E0E91690E0F90692E055
:1022E000090790E0190751F7CC24DD247601472C2B
:1022F0004C0CC701B6010E948901582E0E94210191
:102300004514B1F188E790E00E944203ADB7BEB733
:102310001A970FB6F894BEBF0FBEADBFEDB7FEB7AC
:10232000319608E213E012961C930E93119789E8F8
:1023300090E093838283D582C4824682178250863E
:1023400011860E9432188DB79EB70A960FB6F89480
:102350009EBF0FBE8DBFC8010E94D10280E593ECE5
:1023600020E931E0F9013197F1F70197D9F734C04D
:102370000894C11CD11CE11CF11C90E0C91690E02E
:10238000D90692E0E90690E0F90609F0B0CF84E6BC
:1023900090E0A0E0B0E0880E991EAA1EBB1E7394C8
:1023A000162D90E0891694E6990690E0A90690E033
:1023B000B90609F058CF8AE890E00E9442038EE9FE
:1023C00090E00E94D10280E395E720E931E0F90135
:1023D0003197F1F70197D9F7DF91CF911F910F91C5
:1023E000FF90EF90DF90CF90BF90AF909F908F9035
:1023F0007F906F905F904F903F902F9008952F9215
:102400003F924F925F926F927F928F929F92AF9284
:10241000BF92CF92DF92EF92FF920F931F93DF93C1
:10242000CF93CDB7DEB7E1970FB6F894DEBF0FBEFE
:10243000CDBF0E94510D882391F48CE990E00E9459
:1024400042038EE990E00E94D10280E29EE420E9FE
:1024500031E0F9013197F1F70197D9F7F5C081E043
:1024600090E09B878A8761E0E62EF12CDD2458E21C
:10247000852E53E0952E5E010894A11CB11C4FE9F6
:10248000242E40E0342E30E9432E31E0532E21E05B
:10249000622E712C01C0780188E293E0BE016E5F6C
:1024A0007F4FAE014A5F5F4F95010E94E90981307D
:1024B00021F488E293E00E94D1028981882311F5FA
:1024C0008DB79EB708970FB6F8949EBF0FBE8DBF0D
:1024D000EDB7FEB73196ADB7BEB712969C928E920D
:1024E000119733822282D4821582F782E6820E947B
:1024F00032188DB79EB708960FB6F8949EBF0FBEE0
:102500008DBF21C0ADB7BEB718970FB6F894BEBF48
:102510000FBEADBFEDB7FEB7319612969C928E926C
:10252000119780EB90E093838283D4821582F782A7
:10253000E6820E943218ADB7BEB718960FB6F8946F
:10254000BEBF0FBEADBF88E293E00E94600280ED87
:1025500097E0F2013197F1F70197D9F7839B14C007
:10256000829B03C09AE0C92E02C0CC24C394870189
:102570000E945F07813009F08ECF015010408E2DF0
:10258000801B8C15A8F387CF819B14C0829B03C04E
:102590008AE0C82E02C0CC24C39487010E94EF08B1
:1025A000813009F078CF0F5F1F4F802F8E198C1567
:1025B000A8F371CF849BD2CF8981882319F40E941C
:1025C000A00F6ACFB3E1BD1540F0ED2DF0E0EE0FA6
:1025D000FF1FEA0DFB1DF286E18687FF04C0DD20A8
:1025E00071F0DA940CC0D39483E18D1540F0ED2D99
:1025F000F0E0EE0FFF1FEA0DFB1D728661866A8117
:102600007B818C819D810E94EE0D93E19D1520F4CC
:10261000B1E0EB2EF12C40CFED2DF0E0EE0FFF1FDF
:10262000EA0DFB1D0185128571E0E72EF12C08C033
:102630000E94EF08813009F02FCF0894E11CF11CB3
:10264000E016F106A8F328CFE1960FB6F894DEBFA6
:102650000FBECDBFCF91DF911F910F91FF90EF90F3
:10266000DF90CF90BF90AF909F908F907F906F90B2
:102670005F904F903F902F900895FF920F931F937C
:10268000CF93DF938EE990E00E9460028EE990E0A4
:102690000E94D102BC9ABD9ABF9ABE9880E197E28F
:1026A00020E931E0F9013197F1F70197D9F7C49AA0
:1026B00088E893E120E931E0F9013197F1F70197DA
:1026C000D9F7C59A20E040EA5FE0C79ACA010197AE
:1026D000F1F7C798CA010197F1F72F5F2A3FA9F7D1
:1026E000C49883E58DB91EB888EE93E020E931E007
:1026F000F9013197F1F70197D9F780E460E040E004
:1027000020E000E00E941D04813091F082E391E01E
:102710000E94420384E491E00E94AD0380E395E7C8
:1027200020E931E0F9013197F1F70197D9F780C03D
:102730008FEF8FB9779BFECF8FB1C0E0D0E0FF2441
:10274000FA9415E381E460E040E020E000E00E94BC
:102750001D04FFB8779BFECF9FB18823B1F0812F76
:102760008A95F1F721968FEFCF3FD80759F786E585
:1027700091E00E94420380E395E720E931E0F9010E
:102780003197F1F70197D9F753C00E948D049B014F
:10279000AC012F3F9FEF390790E0490790E05907C0
:1027A00091F488E691E00E9442038AE791E00E945A
:1027B000AD0380E395E720E931E0F9013197F1F7C6
:1027C0000197D9F735C000D000D000D0EDB7FEB7E3
:1027D000319608E213E0ADB7BEB712961C930E9384
:1027E000119782EC90E09383828374E1569547952C
:1027F000379527957A95D1F7358324830E9432182F
:102800008DB79EB706960FB6F8949EBF0FBE8DBFCC
:102810008CE891E00E944203C8010E94D10280E14D
:1028200097E220E931E0F9013197F1F70197D9F703
:10283000DF91CF911F910F91FF9008956F927F923A
:102840008F929F92AF92BF92CF92DF92EF92FF92C0
:102850000F931F938EE990E00E9460028EE990E052
:102860000E94D1028FEF9FEFAFEFBFEF8093120175
:1028700090931301A0931401B093150110921E01BF
:1028800010921F011092200110922101EE24FF24CA
:102890008701C801B7010E94F805693E11F06B3E3F
:1028A000E9F4C801B70161507E4F8F4F9F4F0E94DE
:1028B000F8056A3A99F4C801B70162507E4F8F4F0C
:1028C0009F4F0E94F805653549F4E0921E01F09291
:1028D0001F0100932001109321010EC00894E11CF8
:1028E000F11C011D111D20E0E21620E0F20620E09F
:1028F000020722E0120769F68FEF9FEFAFEFBFEFFD
:102900008093120190931301A0931401B0931501C9
:102910006DE070E080E090E00E94F8056093450370
:102920007093460380934703909348036BE070E0F5
:1029300080E090E00E94420660936D0370936E0306
:1029400080936F03909370036EE070E080E090E0FE
:102950000E94420660934D0370934E0380934F0391
:102960009093500361E170E080E090E00E944206A5
:102970007B018C0120916D0330916E0340916F03B8
:1029800050917003CA01B90161507040804090407D
:10299000E5E0EE0CFF1C001F111FEA95D1F76E0D4C
:1029A0007F1D801F911F0E940918CA01B9010E9452
:1029B00031170E94F2160E940517609379037093F5
:1029C0007A0380937B0390937C0366E170E080E060
:1029D00090E00E94420660935103709352038093EB
:1029E000530390935403611571058105910571F4AA
:1029F00064E270E080E090E00E94A00960935103DF
:102A000070935203809353039093540363E170E0F7
:102A100080E090E00E9442065B016C016115710547
:102A20008105910541F460E270E080E090E00E9451
:102A3000A0095B016C01E0904D03F0904E03009102
:102A40004F031091500360E170E080E090E00E943D
:102A5000F8052091790330917A0340917B035091DE
:102A60007C03350146016E187F08800A910A8401B3
:102A70007301E21AF30A040B150B209151033091F4
:102A8000520340915303509154030E94EA17E61AEF
:102A9000F70A080B190BE0927103F092720300938E
:102AA00073031093740320914503309146034091C2
:102AB000470350914803C801B7010E940918CA0191
:102AC000B9010E9431170E946E170E94051760938A
:102AD0007503709376038093770390937803E09067
:102AE0004D03F0904E0300914F031091500360E1AD
:102AF00070E080E090E00E94F80520917903309129
:102B00007A0340917B0350917C03E20EF31E041F75
:102B1000151F20915103309152034091530350915E
:102B200054030E94EA17E60EF71E081F191FE092D1
:102B30004103F09242030093430310934403109225
:102B400022018EE991E00E944203809175039091E9
:102B50007603A0917703B0917803853F2FE0920729
:102B600020E0A20720E0B20780F484ED91E00E940B
:102B7000AD0380E593EC20E931E0F9013197F1F7FD
:102B80000197D9F71092220124C0855F9F4FA04082
:102B9000B04078F482EC91E00E94AD0380E29EE4C4
:102BA00020E931E0F9013197F1F70197D9F781E098
:102BB0000EC080EB91E00E94AD0380E593EC20E92C
:102BC00031E0F9013197F1F70197D9F782E080936D
:102BD000220180912201882309F495C0823009F4F2
:102BE00092C0A0904D03B0904E03C0904F03D09080
:102BF000500360E170E080E090E00E94F8052091D1
:102C000051033091520340915303509154030E9459
:102C1000EA177B018C01EA0CFB1C0C1D1D1DE092C8
:102C20004903F0924A0300934B0310934C03A09086
:102C30006D03B0906E03C0906F03D090700320912D
:102C40004503309146034091470350914803C60124
:102C5000B5010E94EA1760937D0370937E03809311
:102C60007F0390938003C801B701A60195010E94DC
:102C7000EA177B018C016093810370938203809338
:102C8000830390938403609355037093560380935A
:102C90005703909358036093590370935A0380939A
:102CA0005B0390935C0310925D0310925E0310929D
:102CB0005F031092600310926103109262031092FE
:102CC0006303109264032091790330917A03409159
:102CD0007B0350917C03C601B5010E94EA176E0D7B
:102CE0007F1D801F911F6093690370936A03809317
:102CF0006B0390936C03E0926503F092660300937C
:102D00006703109368031F910F91FF90EF90DF907E
:102D1000CF90BF90AF909F908F907F906F900895CD
:102D20001F93CF93DF930E94B30E0E9412010E9463
:102D30001A020E943D130E941E1410E0C0E9D1E067
:102D400001C013E084E590E00E944203112329F4BE
:102D500088E293E068EC70E014C0113029F488E256
:102D600093E06AED70E00DC0123029F488E293E040
:102D70006CEE70E006C0133031F488E293E06EEF41
:102D800070E00E942B1888E293E00E94D10288E84C
:102D900093E1FE013197F1F70197D9F7839B04C0C6
:102DA000112379F21150CECF819B06C0133011F45C
:102DB00010E0C8CF1F5FC6CF849BF0CF112319F45A
:102DC0001092270106C0113011F0123029F410932F
:102DD00027010E94FF11B6CF133009F0B3CF0E9434
:102DE0001211B0CFD9D080F09F3740F491110EF47A
:102DF000EBC060E070E080E89FE3089526F01B16CA
:102E0000611D711D811D7DC097C0ACD088F09F579A
:102E100090F0B92F9927B751A0F0D1F0660F771F26
:102E2000881F991F1AF0BA95C9F712C0B13081F006
:102E3000CAD0B1E00895C7C0672F782F8827B85F40
:102E400039F0B93FCCF3869577956795B395D9F767
:102E50003EF490958095709561957F4F8F4F9F4F71
:102E60000895E89409C097FB3EF49095809570957D
:102E700061957F4F8F4F9F4F9923A9F0F92F96E9C6
:102E8000BB279395F695879577956795B795F1113B
:102E9000F8CFFAF4BB0F11F460FF1BC06F5F7F4FD8
:102EA0008F4F9F4F16C0882311F096E911C07723EA
:102EB00021F09EE8872F762F05C0662371F096E8F3
:102EC000862F70E060E02AF09A95660F771F881FC2
:102ED000DAF7880F9695879597F908955DD080F079
:102EE0009F3740F491110EF06FC060E070E080E811
:102EF0009FEB089526F41B16611D711D811D01C0F5
:102F00001BC0882371F4772321F09850872B762FEC
:102F100007C0662311F499270DC09051862B70E0ED
:102F200060E02AF09A95660F771F881FDAF7880FFE
:102F30009695879597F908959F3F31F0915020F429
:102F4000879577956795B795880F911D9695879585
:102F500097F9089557FD9058440F551F59F05F3F5A
:102F600071F04795880F97FB991F61F09F3F79F0AB
:102F700087950895121613061406551FF2CF46952D
:102F8000F1DF08C0161617061806991FF1CF8695AF
:102F90007105610508940895E5DFA0F0BEE7B91753
:102FA00088F4BB279F3860F41616B11D672F782F61
:102FB0008827985FF7CF869577956795B11D93958C
:102FC0009639C8F30895E894BB2766277727CB0185
:102FD00097F90895629FD001739FF001829FE00DE1
:102FE000F11D649FE00DF11D929FF00D839FF00D88
:102FF000749FF00D659FF00D9927729FB00DE11D34
:10300000F91F639FB00DE11DF91FBD01CF01112410
:103010000895A1E21A2EAA1BBB1BFD010DC0AA1F19
:10302000BB1FEE1FFF1FA217B307E407F50720F031
:10303000A21BB30BE40BF50B661F771F881F991FAC
:103040001A9469F760957095809590959B01AC01F5
:10305000BD01CF010895FB01DC0101900D9200201C
:10306000E1F70895AEE0B0E0E8E3F8E10C94E11A8E
:103070000D891E8986E08C831A8309838FEF9FE771
:103080009E838D839E01275E3F4FCE0101966F89FF
:10309000788DA9010E9456182F813885020F131FC1
:1030A000F80110822E96E4E00C94FD1AABE0B0E03B
:1030B000ECE5F8E10C94D31A3C012B015A01FC0118
:1030C00017821682838181FD03C06FEF7FEFC6C137
:1030D0009AE0892E1E010894211C311CF3012381E2
:1030E000F20123FD859123FF81912F01882309F4AB
:1030F000B2C1853239F423FD859123FF81912F01DF
:10310000853229F490E0B3010E94491AE7CF982F45
:10311000FF24EE249924FFE1FF15D0F09B3269F0E3
:103120009C3228F4903259F0933291F40EC09D32C3
:1031300049F0903369F441E024C052E0F52A84E07C
:10314000F82A28C098E0F92A25C0E0E1FE2A22C02A
:10315000F7FC29C0892F80538A3070F4F6FE05C031
:10316000989C902C1124980E15C0E89CE02C1124FA
:10317000E80EF0E2FF2A0EC09E3229F4F6FC6BC185
:1031800040E4F42A07C09C3619F450E8F52A02C03E
:10319000983649F4F20123FD959123FF91912F0177
:1031A000992309F0B8CF892F8554833018F08052C5
:1031B000833038F444E050E0A40EB51E5FE3598339
:1031C0000FC0933631F0933779F0933509F056C03C
:1031D00020C0F5018081898342E050E0A40EB51E35
:1031E000610101E010E012C0F501C080D180F6FC61
:1031F00003C06FEF7FEF02C0692D70E042E050E046
:10320000A40EB51EC6010E943E1A8C015FE7F5228E
:1032100014C0F501C080D180F6FC03C06FEF7FEFD2
:1032200002C0692D70E042E050E0A40EB51EC60158
:103230000E94331A8C0150E8F52AF3FE07C01AC029
:1032400080E290E0B3010E94491AEA948E2D90E04A
:1032500008171907A8F30EC0F601F7FC8591F7FED1
:1032600081916F0190E0B3010E94491AE110EA9444
:10327000015010400115110579F7EAC0943611F09C
:10328000993669F5F7FE08C0F50120813181428148
:10329000538184E090E00AC0F501808191819C0116
:1032A000442737FD4095542F82E090E0A80EB91EC8
:1032B0009FE6F92257FF09C050954095309521951A
:1032C0003F4F4F4F5F4FE0E8FE2ACA01B901A1010D
:1032D0002AE030E00E94751AD82ED21840C09537E7
:1032E00029F41F2D1F7E2AE030E01DC01F2D197FFD
:1032F0009F3661F0903720F4983509F0ACC00FC0CC
:10330000903739F0983709F0A6C004C028E030E0C3
:103310000AC0106114FD146020E130E004C014FD07
:10332000166020E132E017FF08C0F501608171816D
:103330008281938144E050E008C0F5018081918151
:10334000BC0180E090E042E050E0A40EB51EA10177
:103350000E94751AD82ED2188FE7F82EF122F6FEA9
:103360000BC05EEFF522D91438F4F4FE07C0F2FC6E
:1033700005C08FEEF82202C01D2D01C0192DF4FEEC
:103380000DC0FE01ED0DF11D8081803319F499EE21
:10339000F92208C01F5FF2FE05C003C08F2D86789A
:1033A00009F01F5F0F2DF3FC14C0F0FE0FC01E15B7
:1033B00010F09D2C0BC09D2C9E0C911A1E2D06C04A
:1033C00080E290E0B3010E94491A1F5F1E15C0F30E
:1033D00004C01E1510F4E11A01C0EE2404FF0FC052
:1033E00080E390E0B3010E94491A02FF1DC001FD75
:1033F00003C088E790E00EC088E590E00BC0802F06
:10340000867891F001FF02C08BE201C080E2F7FCF8
:103410008DE290E0B3010E94491A06C080E390E07B
:10342000B3010E94491A9A94D914C0F3DA94F101B5
:10343000ED0DF11D808190E0B3010E94491ADD205D
:10344000A9F706C080E290E0B3010E94491AEA940D
:10345000EE20C1F743CEF30166817781CB012B9635
:10346000E2E10C94EF1AFC010590615070400110EC
:10347000D8F7809590958E0F9F1F0895FC0161509D
:10348000704001900110D8F7809590958E0F9F1F86
:1034900008950F931F93CF93DF938C01EB018B81E2
:1034A00081FF1BC082FF0DC02E813F818C819D81D9
:1034B0002817390764F4E881F9810193F983E883D7
:1034C00006C0E885F985802F0995892B31F48E8116
:1034D0009F8101969F838E8302C00FEF1FEFC8016B
:1034E000DF91CF911F910F910895FA01AA272830FB
:1034F00051F1203181F1E8946F936E7F6E5F7F4FC1
:103500008F4F9F4FAF4FB1E03ED0B4E03CD0670F3C
:10351000781F891F9A1FA11D680F791F8A1F911D8F
:10352000A11D6A0F711D811D911DA11D20D009F4DF
:1035300068943F912AE0269F11243019305D319321
:10354000DEF6CF010895462F4770405D4193B3E00A
:103550000FD0C9F7F6CF462F4F70405D4A3318F0B1
:10356000495D31FD4052419302D0A9F7EACFB4E062
:10357000A6959795879577956795BA95C9F700971A
:103580006105710508959B01AC010A2E06945795BB
:10359000479537952795BA95C9F7620F731F841F12
:1035A000951FA01D08952F923F924F925F926F92A8
:1035B0007F928F929F92AF92BF92CF92DF92EF92C3
:1035C000FF920F931F93CF93DF93CDB7DEB7CA1B44
:1035D000DB0B0FB6F894DEBF0FBECDBF09942A886F
:1035E000398848885F846E847D848C849B84AA8417
:1035F000B984C884DF80EE80FD800C811B81AA81A4
:10360000B981CE0FD11D0FB6F894DEBF0FBECDBF6E
:08361000ED010895F894FFCFCD
:10361800C1EBEEEA3A2575205B25755D00C1EBEE3E
:10362800EA3A2575205B305D00C2FBEFEEEBEDE575
:10363800EDEE3A25692025250025303578203D20F6
:103648005B25303278202C20253032785D00005BF5
:10365800253032753A253035755D20D4E0E9EB0028
:103668005B253032753A253035755D20CFE0EFEABD
:10367800E000256920CCC1003E20CCE0E3EDE8F273
:10368800EEF4EEED207831203C003E20CCE0E3ED76
:10369800E8F2EEF4EEED207832203C003E20CCE05B
:1036A800E3EDE8F2EEF4EEED207834203C003E2025
:1036B80020D2E5F1F220EFE0ECFFF2E820203C0018
:0636C8000002FFFFFFFFFE
:00000001FF
